{
  "abi": [
    {
      "inputs": [],
      "name": "getAllRestaurants",
      "outputs": [
        {
          "components": [
            {
              "internalType": "address",
              "name": "owner",
              "type": "address"
            },
            {
              "internalType": "string",
              "name": "name",
              "type": "string"
            },
            {
              "internalType": "string",
              "name": "location",
              "type": "string"
            }
          ],
          "internalType": "struct RestaurantManager.Restaurant[]",
          "name": "",
          "type": "tuple[]"
        }
      ],
      "stateMutability": "view",
      "type": "function"
    },
    {
      "inputs": [
        {
          "internalType": "uint256",
          "name": "restaurantId",
          "type": "uint256"
        }
      ],
      "name": "getRestaurant",
      "outputs": [
        {
          "components": [
            {
              "internalType": "address",
              "name": "owner",
              "type": "address"
            },
            {
              "internalType": "string",
              "name": "name",
              "type": "string"
            },
            {
              "internalType": "string",
              "name": "location",
              "type": "string"
            }
          ],
          "internalType": "struct RestaurantManager.Restaurant",
          "name": "",
          "type": "tuple"
        }
      ],
      "stateMutability": "view",
      "type": "function"
    },
    {
      "inputs": [
        {
          "internalType": "string",
          "name": "name",
          "type": "string"
        },
        {
          "internalType": "string",
          "name": "location",
          "type": "string"
        }
      ],
      "name": "registerRestaurant",
      "outputs": [],
      "stateMutability": "nonpayable",
      "type": "function"
    },
    {
      "inputs": [
        {
          "internalType": "uint256",
          "name": "",
          "type": "uint256"
        }
      ],
      "name": "restaurants",
      "outputs": [
        {
          "internalType": "address",
          "name": "owner",
          "type": "address"
        },
        {
          "internalType": "string",
          "name": "name",
          "type": "string"
        },
        {
          "internalType": "string",
          "name": "location",
          "type": "string"
        }
      ],
      "stateMutability": "view",
      "type": "function"
    }
  ],
  "bytecode": {
    "object": "0x608060405234801561001057600080fd5b50610a78806100206000396000f3fe608060405234801561001057600080fd5b506004361061004c5760003560e01c80638773440014610051578063880d4ee81461006f578063ad5461d814610084578063c298f1e7146100a6575b600080fd5b6100596100c6565b604051610066919061071c565b60405180910390f35b61008261007d3660046107c7565b6102e1565b005b610097610092366004610833565b6103cd565b6040516100669392919061084c565b6100b96100b4366004610833565b61050b565b604051610066919061088c565b606060006100d360005490565b905060008167ffffffffffffffff8111156100f0576100f06108a6565b60405190808252806020026020018201604052801561014e57816020015b61013b604051806060016040528060006001600160a01b0316815260200160608152602001606081525090565b81526020019060019003908161010e5790505b50905060005b828110156102da5760008181526001602081815260409283902083516060810190945280546001600160a01b03168452918201805491840191610196906108bc565b80601f01602080910402602001604051908101604052809291908181526020018280546101c2906108bc565b801561020f5780601f106101e45761010080835404028352916020019161020f565b820191906000526020600020905b8154815290600101906020018083116101f257829003601f168201915b50505050508152602001600282018054610228906108bc565b80601f0160208091040260200160405190810160405280929190818152602001828054610254906108bc565b80156102a15780601f10610276576101008083540402835291602001916102a1565b820191906000526020600020905b81548152906001019060200180831161028457829003601f168201915b5050505050815250508282815181106102bc576102bc6108f6565b602002602001018190525080806102d29061090c565b915050610154565b5092915050565b6000546040805160608101825233815281516020601f8801819004810282018101909352868152909180830191908890889081908401838280828437600092019190915250505090825250604080516020601f8701819004810282018101909252858152918101919086908690819084018382808284376000920182905250939094525050838152600160208181526040909220845181546001600160a01b0319166001600160a01b03909116178155918401519192508201906103a59082610982565b50604082015160028201906103ba9082610982565b5050600080546001019055505050505050565b6001602081905260009182526040909120805491810180546001600160a01b03909316926103fa906108bc565b80601f0160208091040260200160405190810160405280929190818152602001828054610426906108bc565b80156104735780601f1061044857610100808354040283529160200191610473565b820191906000526020600020905b81548152906001019060200180831161045657829003601f168201915b505050505090806002018054610488906108bc565b80601f01602080910402602001604051908101604052809291908181526020018280546104b4906108bc565b80156105015780601f106104d657610100808354040283529160200191610501565b820191906000526020600020905b8154815290600101906020018083116104e457829003601f168201915b5050505050905083565b610538604051806060016040528060006001600160a01b0316815260200160608152602001606081525090565b60008281526001602081815260409283902083516060810190945280546001600160a01b03168452918201805491840191610572906108bc565b80601f016020809104026020016040519081016040528092919081815260200182805461059e906108bc565b80156105eb5780601f106105c0576101008083540402835291602001916105eb565b820191906000526020600020905b8154815290600101906020018083116105ce57829003601f168201915b50505050508152602001600282018054610604906108bc565b80601f0160208091040260200160405190810160405280929190818152602001828054610630906108bc565b801561067d5780601f106106525761010080835404028352916020019161067d565b820191906000526020600020905b81548152906001019060200180831161066057829003601f168201915b5050505050815250509050919050565b6000815180845260005b818110156106b357602081850181015186830182015201610697565b506000602082860101526020601f19601f83011685010191505092915050565b60018060a01b03815116825260006020820151606060208501526106fa606085018261068d565b905060408301518482036040860152610713828261068d565b95945050505050565b6000602080830181845280855180835260408601915060408160051b870101925083870160005b8281101561077157603f1988860301845261075f8583516106d3565b94509285019290850190600101610743565b5092979650505050505050565b60008083601f84011261079057600080fd5b50813567ffffffffffffffff8111156107a857600080fd5b6020830191508360208285010111156107c057600080fd5b9250929050565b600080600080604085870312156107dd57600080fd5b843567ffffffffffffffff808211156107f557600080fd5b6108018883890161077e565b9096509450602087013591508082111561081a57600080fd5b506108278782880161077e565b95989497509550505050565b60006020828403121561084557600080fd5b5035919050565b6001600160a01b03841681526060602082018190526000906108709083018561068d565b8281036040840152610882818561068d565b9695505050505050565b60208152600061089f60208301846106d3565b9392505050565b634e487b7160e01b600052604160045260246000fd5b600181811c908216806108d057607f821691505b6020821081036108f057634e487b7160e01b600052602260045260246000fd5b50919050565b634e487b7160e01b600052603260045260246000fd5b60006001820161092c57634e487b7160e01b600052601160045260246000fd5b5060010190565b601f82111561097d57600081815260208120601f850160051c8101602086101561095a5750805b601f850160051c820191505b8181101561097957828155600101610966565b5050505b505050565b815167ffffffffffffffff81111561099c5761099c6108a6565b6109b0816109aa84546108bc565b84610933565b602080601f8311600181146109e557600084156109cd5750858301515b600019600386901b1c1916600185901b178555610979565b600085815260208120601f198616915b82811015610a14578886015182559484019460019091019084016109f5565b5085821015610a325787850151600019600388901b60f8161c191681555b5050505050600190811b0190555056fea26469706673582212203f9d56966264d2ad61a7c45d951b0d0bd4398be87edde0a42e18c80e2c29f25c64736f6c63430008110033",
    "linkReferences": {}
  },
  "methodIdentifiers": {
    "getAllRestaurants()": "87734400",
    "getRestaurant(uint256)": "c298f1e7",
    "registerRestaurant(string,string)": "880d4ee8",
    "restaurants(uint256)": "ad5461d8"
  },
  "id": 20
}